:020000040800F2
:1000000000400020B901000805040008130400089E
:10001000210400082F0400083D04000850010008D6
:10002000500100085001000850010008500100086C
:100030005001000850010008FB0100088D04000871
:10004000500100085001000850010008500100084C
:10005000500100085001000850010008500100083C
:10006000500100085001000850010008500100082C
:10007000500100085001000850010008500100081C
:10008000500100085001000850010008500100080C
:1000900050010008500100085001000850010008FC
:1000A00050010008500100085001000850010008EC
:1000B00050010008500100085001000850010008DC
:1000C00050010008500100085001000850010008CC
:1000D00050010008500100084D04000850010008BC
:1000E00050010008500100085001000850010008AC
:1000F000500100085001000850010008500100089C
:10010000500100085001000850010008500100088B
:10011000500100085001000850010008500100087B
:10012000500100085001000850010008500100086B
:10013000500100085001000850010008500100085B
:10014000500100085001000850010008500100084B
:0401500000BE0000ED
:1001540080B582B000AF00F0A5F90346002B01D1B1
:10016400042323E000F062FA4FF47A7000F004FAFA
:1001740000F052F8072000F075F84FF000637B6040
:100184007B6803F5C0236921184600F0A7F800F046
:10019400E1FBFB1C184600F0A9FB012000F012FA59
:1001A400FB78184600F072FB00BFF2E718460837E8
:1001B400BD4680BD1249134A134B9C1A4FF00005EB
:1001C400002C07D051F8256042F825600135601BEA
:1001D4000028F7DC0D490E4A531A002B4FF0000497
:1001E4004FF0000541F825400135581B0028F9DC83
:1001F4000848004700BEEFF3098000F00DBA000084
:10020400370C00080000002000000020000000203F
:10021400000400205501000880B483B000AF0E4BE9
:100224007B6000BF7B681B6903F48033002BF9D12A
:100234007B680A4A5A607B68094A5A6000BF7B6837
:100244001B6903F48033002BF9D100BF00BF0C37C6
:10025400BD4680BC704700BF003C02402301674597
:10026400AB89EFCD80B485B000AF0346FB711A4B68
:10027400FB6000BFFB68DB6803F48033002BF9D11B
:10028400FB681B6923F03802FB681A61FB681A6972
:10029400FB79DB001A43FB681A61FB681B6943F0B6
:1002A4000202FB681A61FB681B6943F48032FB6835
:1002B4001A6100BFFB68DB6803F48033002BF9D1BB
:1002C400FB681B6923F00202FB681A6100BF143744
:1002D400BD4680BC704700BF003C024080B485B07E
:1002E40000AF78600B46FB70114BFB6000BFFB68EE
:1002F400DB6803F48033002BF9D1FB681B6943F0FE
:100304000102FB681A617B68FA781A7000BFFB6807
:10031400DB6803F48033002BF9D1FB681B6923F0FD
:100324000102FB681A6100BF1437BD4680BC7047E8
:10033400003C024080B489B000AFB9607A603B6091
:100344000346FB732B4BFB61FB691B6BFA7B2A494E
:1003540051F822201A43FB691A63FB7B274A52F89F
:100364002330BB61BB691A68BB685B00796801FA1A
:1003740003F31A43BB691A60BB695A683968BB68DE
:1003840001FA03F31A43BB695A60BB699A68BB68F4
:100394005B00B96A01FA03F31A43BB699A60BB694B
:1003A400DA68BB685B00F96A01FA03F31A43BB69B4
:1003B400DA60BB68072B8CBF01230023DBB27B61AF
:1003C400BB6803F007033B61BB697A69083253F8E1
:1003D40022203B699B00396B01FA03F342EA0301D3
:1003E400BB697A69083243F8221000BF2437BD463E
:1003F40080BC704700380240000C0008140C000850
:1004040080B400AF00BE00BFBD4680BC704780B45E
:1004140000AF00BE00BFBD4680BC704780B400AFD3
:1004240000BE00BFBD4680BC704780B400AF00BEB4
:1004340000BFBD4680BC704780B400AF00BE00BFA3
:10044400BD4680BC7047000080B582B000AF0D4B44
:100454007B607B681B6803F08003002B01D000F0F5
:10046400E5F97B681B6803F02003002B01D000F042
:10047400F7F90321262000F031F800BF0837BD4604
:1004840080BD00BF0044004080B500AF044B1B6832
:100494000133034A136000F0ADF800BF80BD00BF14
:1004A4002800002080B483B000AF00237B6009E003
:1004B400094A7B6852F82330002B00D000BE7B68C9
:1004C40001337B607B68092BF2DD012318460C376E
:1004D400BD4680BC704700BF0000002080B487B0D8
:1004E40000AF78600B46FB7000237B617B685A4247
:1004F40003F01F0302F01F0258BF53423B617B68A5
:10050400002B00DA1F335B11FB60FB78032B17D839
:1005140001A252F823F000BF2D050008330500089E
:10052400390500083F0500080F4B7B6108E00F4BBD
:100534007B6105E00E4B7B6102E00E4B7B6100BFEB
:100544007B69FA6853F8223001213A6901FA02F210
:1005540043EA02017B69FA6843F8221000BF1C37A2
:10056400BD4680BC704700BF00E100E080E100E0D0
:1005740000E200E080E200E080B485B000AF786083
:100584000F4BFB60FB681B6843F00202FB681A60B8
:10059400FB681B6843F00402FB681A607B684FF435
:1005A4007A5203FB02F2FB685A60FB681B6843F053
:1005B4000102FB681A6000BF1437BD4680BC704757
:1005C40010E000E080B485B000AF7860084B1B6891
:1005D4007A681344FB6000BF054B1B68FA689A42B3
:1005E400FAD800BF00BF1437BD4680BC704700BFB7
:1005F4002800002080B483B000AF064B7B607B688A
:100604005B6843F080527B685A6000BF0C37BD467C
:1006140080BC704700ED00E080B483B000AF786028
:1006240000BE00BF0C37BD4680BC704780B586B0A5
:1006340004AF0723029300230193032300930023B1
:10064400022203210020FFF775FE072302930023F3
:100654000193032300930023022202210020FFF7C9
:1006640069FE1C4B7B607B681B6C43F400327B6827
:100674001A64194B3B603B68DB6823F480523B6887
:10068400DA603B68DB6843F008023B68DA603B6889
:10069400DB6843F004023B68DA603B68DB6843F0E4
:1006A40020023B68DA603B681B6923F440523B68D4
:1006B4001A613B6888229A603B68DB6843F4005205
:1006C4003B68DA6000212620FFF708FF00BF0837E7
:1006D400BD4680BD003802400044004080B485B06F
:1006E40000AF78607B681B69013303F00F03FB6084
:1006F4007B685B69FA689A420CBF01230023DBB272
:1007040018461437BD4680BC704780B483B000AF30
:1007140078607B681A697B685B699A420CBF012325
:100724000023DBB218460C37BD4680BC704700007E
:1007340080B584B000AF78600B46FB707868FFF733
:10074400CDFF0346002B01D000232EE07B681B69FC
:100754007A68F978D1547B681B69013303F00F027E
:100764007B681A61134BFB607B68134A93420BD17D
:10077400FB68DB6803F08003002B05D1FB68DB68B2
:1007840043F08002FB68DA607B680C4A93420BD129
:100794007868FFF7A3FF0346002B05D0FB68DB68EE
:1007A40023F02002FB68DA60012318461037BD46A7
:1007B40080BD00BF004400402C0000204400002005
:1007C40080B584B000AF786039607868FFF79DFF2A
:1007D4000346002B01D000231FE07B685B697A6825
:1007E400D25C3B681A707B685B69013303F00F02CB
:1007F4007B685A610B4BFB607B680B4A93420BD1BD
:100804007868FFF782FF0346002B05D0FB68DB689E
:1008140023F08002FB68DA60012318461037BD46D6
:1008240080BD00BF004400402C00002080B582B091
:1008340000AF094B7B60FB1C19460848FFF7C0FF5B
:100844000346002B03D0FB781A467B685A6000BF2E
:100854000837BD4680BD00BF004400402C00002086
:1008640080B582B000AF074B7B607B685B68FB7030
:10087400FB7819460448FFF75BFF00BF0837BD4605
:1008840080BD00BF004400404400002080B582B019
:1008940000AF0346FB71FB79082B17D100BF082179
:1008A4001148FFF745FF0346002BF8D000BF202175
:1008B4000D48FFF73DFF0346002BF8D000BF082189
:1008C4000948FFF735FF0346002BF8D000BFFB793A
:1008D40019460548FFF72CFF0346002BF7D000BF4D
:1008E40000BF0837BD4680BD2C00002080B582B013
:1008F40000AF786000BF79680548FFF761FF0346E1
:10090400002BF8D000BF00BF0837BD4680BD00BF34
:100914004400002080B582B000AF786007E07B68B7
:100924001B781846FFF7B2FF7B6801337B607B6856
:100934001B78002BF3D100BF00BF0837BD4680BD34
:1009440080B500AF0248FFF7E5FF00BFFDE700BF39
:10095400200C0008054880F309884FF0030080F359
:100964001488BFF36F8FFFF7EBBF0000003800203F
:100974000000000000000000000000000000000073
:100984000000000000000000000000000000000063
:100994000000000000000000000000000000000053
:1009A4000000000000000000000000000000000043
:100BF40000000000000000000000000001000000F0
:100C040002000000040000000800000010000000C2
:100C140000000240000402400008024048656C6C79
:100C24006F2066726F6D207573657220636F6465E3
:030C3400210A0092
:04000005080001B935
:00000001FF
