:020000040800F2
:10000000004000209D010008E9020008F7020008F6
:10001000050300081303000821030008500100082D
:10002000500100085001000850010008FD010008BF
:100030005001000850010008DF01000871030008AA
:10004000500100085001000850010008500100084C
:10005000500100085001000850010008500100083C
:10006000500100085001000850010008500100082C
:10007000500100085001000850010008500100081C
:10008000500100085001000850010008500100080C
:1000900050010008500100085001000850010008FC
:1000A00050010008500100085001000850010008EC
:1000B00050010008500100085001000850010008DC
:1000C00050010008500100085001000850010008CC
:1000D00050010008500100083103000850010008D9
:1000E00050010008500100085001000850010008AC
:1000F000500100085001000850010008500100089C
:10010000500100085001000850010008500100088B
:10011000500100085001000850010008500100087B
:10012000500100085001000850010008500100086B
:10013000500100085001000850010008500100085B
:10014000500100085001000850010008500100084B
:0401500000BE0000ED
:1001540080B582B000AF00F063F90346002B01D1F3
:10016400042314E000F0B6FC4FF47A7000F0C2F9F6
:1001740000F0A8FEFB1D184600F012FE012000F05E
:10018400DFF9FB79184600F0DBFD00BFF2E7184603
:100194000837BD4680BD000019491A4A1A4B9C1AFB
:1001A4004FF00005002C07D051F8256042F8256077
:1001B4000135601B0028F7DC1449154A531A002B3B
:1001C4004FF000044FF0000541F825400135581B5D
:1001D4000028F9DC0F48004700BEEFF309802DE941
:1001E400F14FEFF3088000F0E1FA80F30888BDE8EE
:1001F400F14F80F309887047EFF3098000F0C4B829
:10020400AD100008000000201000002010000020A5
:10021400000800205501000880B489B000AFB9601F
:100224007A603B600346FB732B4BFB61FB691B6BE2
:10023400FA7B2A4951F822201A43FB691A63FB7B93
:10024400274A52F82330BB61BB691A68BB685B005C
:10025400796801FA03F31A43BB691A60BB695A68E7
:100264003968BB6801FA03F31A43BB695A60BB6976
:100274009A68BB685B00B96A01FA03F31A43BB6965
:100284009A60BB69DA68BB685B00F96A01FA03F338
:100294001A43BB69DA60BB68072B8CBF01230023B8
:1002A400DBB27B61BB6803F007033B61BB697A691E
:1002B400083253F822203B699B00396B01FA03F39F
:1002C40042EA0301BB697A69083243F8221000BF8D
:1002D4002437BD4680BC7047003802400010000837
:1002E4001410000880B400AF00BE00BFBD4680BC3F
:1002F400704780B400AF00BE00BFBD4680BC7047ED
:1003040080B400AF00BE00BFBD4680BC704780B45F
:1003140000AF00BE00BFBD4680BC704780B400AFD4
:1003240000BE00BFBD4680BC7047000080B582B0EF
:1003340000AF0D4B7B607B681B6803F08003002BD0
:1003440001D000F0C7FC7B681B6803F02003002B7E
:1003540001D000F0DFFC0321262000F07DF800BF6F
:100364000837BD4680BD00BF0044004080B500AFE3
:10037400044B1B680133034A136000F02BF900BFE0
:1003840080BD00BF3C00002080B586B000AF78601F
:100394007B6818331B68023B1B68DBB27B617B689C
:1003A4001B68BB607B685B683B617B69013B042B1A
:1003B40032D801A252F823F0D1030008E90300085F
:1003C400FB0300080504000817040008BB681A466C
:1003D4003B691946104600F013FB03467B737B7B95
:1003E400BB6019E0BB68184600F08EFA0346BB7385
:1003F400BB7BBB6010E0BB68184600F029FB0BE038
:10040400BB68184600F03CFA0346FB73FB7BBB60F9
:1004140002E000F055FB00BF00BF1837BD4680BDA9
:1004240080B483B000AF00237B6009E0094A7B6895
:1004340052F82330002B00D000BE7B6801337B6070
:100444007B68092BF2DD012318460C37BD4680BCBE
:10045400704700BF1400002080B487B000AF7860FC
:100464000B46FB7000237B617B685A4203F01F0339
:1004740002F01F0258BF53423B617B68002B00DA35
:100484001F335B11FB60FB78032B17D801A252F8D2
:1004940023F000BFA9040008AF040008B504000855
:1004A400BB0400080F4B7B6108E00F4B7B6105E048
:1004B4000E4B7B6102E00E4B7B6100BF7B69FA68E7
:1004C40053F8223001213A6901FA02F243EA0201A7
:1004D4007B69FA6843F8221000BF1C37BD4680BC14
:1004E400704700BF00E100E080E100E000E200E0CE
:1004F40080E200E080B485B000AF78600F4BFB6011
:10050400FB681B6843F00202FB681A60FB681B6807
:1005140043F00402FB681A607B684FF47A5203FBD1
:1005240002F2FB685A60FB681B6843F00102FB6837
:100534001A6000BF1437BD4680BC704710E000E06D
:1005440080B485B000AF7860084B1B687A681344A8
:10055400FB6000BF054B1B68FA689A42FAD800BFDB
:1005640000BF1437BD4680BC704700BF3C0000206C
:1005740080B485B000AF0346FB710A4BFB60FB6897
:100584005B6A23F08002FB685A62FB685A6AFB7953
:10059400DB011A43FB685A6200BF1437BD4680BCB6
:1005A400704700BF00ED00E080B483B000AF084B9B
:1005B4007B607B685B6A03F08003002B01D001231E
:1005C40000E0002318460C37BD4680BC704700BFCE
:1005D40000ED00E080B483B000AF064B7B607B6825
:1005E4005B6843F080527B685A6000BF0C37BD469D
:1005F40080BC704700ED00E080B485B000AF786047
:100604000023FB6017E0FB689B007A6813441B68B7
:10061400002B0DD0FB689B007A6813441B68BB60F9
:10062400FB689B007A68134400221A60BB6808E0E8
:10063400FB680133FB60054B1B68FA689A42E2D3FE
:10064400002318461437BD4680BC70474400002080
:1006540080B485B000AF786039600023FB6010E09F
:10066400FB689B007A6813441B68002B06D1FB6867
:100674009B007A6813443A681A6007E0FB68013308
:10068400FB60044B1B68FA689A42E9D31437BD46F1
:1006940080BC70474400002080B483B000AF786011
:1006A40001227B6802FA03F31A46064B1B681340C7
:1006B400002B14BF01230023DBB218460C37BD46C0
:1006C40080BC70470800002080B582B000AF0023D2
:1006D4007B6015E07868FFF7DFFF0346002B0CD042
:1006E40001227B6802FA03F3DB431A46094B1B68B9
:1006F4001340084A13607B6808E07B6801337B6021
:10070400054B1B687A689A42E4D37B68184608371D
:10071400BD4680BD080000204400002080B483B0A2
:1007240000AF786001227B6802FA03F31A46054B96
:100734001B681343034A136000BF0C37BD4680BCDB
:10074400704700BF0800002080B584B000AF154B8F
:100754001B680133144A1268B3FBF2F101FB02F285
:100764009B1A7B600023FB600023BB6011E0B86828
:10077400FFF792FF0346002B08D1FA687B689A4280
:1007840001D1BB680AE0FB680133FB60BB6801333D
:10079400BB60FA687B689A42E9D3BB681846103795
:1007A400BD4680BD400000204400002080B586B0D6
:1007B40000AF7860FFF7C8FF7861184B1B687A694F
:1007C4009A4201D17B6824E0FFF7EEFE0346FB74F6
:1007D400124B1B681B01124A1344FB607B691B010B
:1007E4000F4A1344BB60FB687A681A60FB680122F5
:1007F4001A73FB68FA7C5A73BB685B7B1846FFF775
:10080400B7FEBB6802221A73044A7B691360BB6893
:100814001B6818461837BD4680BD00BF4000002045
:100824005401002080B487B000AFF860B9607A60EA
:10083400FB681B01104A13447B617B691B686FF0E2
:1008440002025A627B691B681B680C4A5A617B6905
:100854001B681B684FF08072DA617B691B681B6838
:10086400BA689A617B691B681B687A681A6000BF62
:100874001C37BD4680BC704754010020EC0E0008B4
:1008840080B586B000AF7860194B1B685A1C194BB1
:100894001B689A4201D8002326E0FFF715FF786110
:1008A4007B691B01144A13443B617B68DB00134AD8
:1008B4001344FB601248FFF79FFE03461A463B6948
:1008C4001A601048FFF798FE02463B691B681A60DD
:1008D4003B6901221A73FB681968FB685B681A4656
:1008E4007869FFF79FFF012318461837BD4680BD7E
:1008F4004400002004000020540100204C0000208B
:1009040064030020E403002080B58AB000AF78605F
:100914007B68202B01D9002357E07B6801332D4AE3
:1009240013602D4A2D4BD31A2D4A13602D4A2E4B9A
:10093400D31A2E4A13602A4B1A68264B1B68B2FB43
:10094400F3F33B62294B1A68224B1B68B2FBF3F3A7
:10095400FB6100237B6222E022497B6AFA6902FB85
:1009640003F3CB1A7B611C497B6A3A6A02FB03F3EB
:10097400CB1A3B617B69283B23F00703FB603B698F
:10098400203B23F00703BB60F9681948FFF760FEBA
:10099400B9681848FFF75CFE7B6A01337B620D4B34
:1009A4001B687A6A9A42D7D3134BBB61BB69134A5B
:1009B4001A60BB6900225A600020FFF761FF002221
:1009C4000E490020FFF72EFF012318462837BD46A5
:1009D40080BD00BF440000200000012000800020F2
:1009E40048000020008001200000012010000020A9
:1009F40064030020E40300204C000020F90D0008EB
:100A040080B485B000AF786039600E4B1A680E4B25
:100A14001B689A4201D300230FE00A4B1B685A1C3F
:100A240008490A60DB00094A1344FB60FB687A68E2
:100A34001A60FB683A685A60012318461437BD46A9
:100A440080BC704700000020440000204C000020BF
:100A540080B584B000AF78607B681B01144A1344EE
:100A6400FB60144B1B68012B1ED9FB681B7B002BFE
:100A74001AD07B68002B17D00E4B1B68013B0D4A24
:100A84001360FB6800221A73FB689B6819460A48C6
:100A9400FFF7DEFDFB685B6819460848FFF7D8FDE1
:100AA4007868FFF73BFE00E000BF1037BD4680BD0D
:100AB400540100200400002064030020E40300200B
:100AC40080B500AF3220FFF715FDFFF783FD00BFAF
:100AD40080BD000080B586B004AF072302930023D5
:100AE4000193032300930023022203210020FFF734
:100AF40093FB072302930023019303230093002312
:100B0400022202210020FFF787FB1C4B7B607B68DD
:100B14001B6C43F400327B681A64194B3B603B68DE
:100B2400DB6823F480523B68DA603B68DB6843F09F
:100B340008023B68DA603B68DB6843F004023B6808
:100B4400DA603B68DB6843F020023B68DA603B68AC
:100B54001B6923F440523B681A613B6888229A60FF
:100B64003B68DB6843F400523B68DA6000212620CE
:100B7400FFF772FC00BF0837BD4680BD0038024055
:100B84000044004080B485B000AF78607B681B6986
:100B9400013303F00F03FB607B685B69FA689A42D8
:100BA4000CBF01230023DBB218461437BD4680BCBA
:100BB400704780B483B000AF78607B681A697B6843
:100BC4005B699A420CBF01230023DBB218460C3741
:100BD400BD4680BC7047000080B584B000AF78602B
:100BE4000B46FB707868FFF7CDFF0346002B01D05E
:100BF40000232EE07B681B697A68F978D1547B68FE
:100C04001B69013303F00F027B681A61134BFB600D
:100C14007B68134A93420BD1FB68DB6803F08003C3
:100C2400002B05D1FB68DB6843F08002FB68DA60C7
:100C34007B680C4A93420BD17868FFF7A3FF034605
:100C4400002B05D0FB68DB6823F02002FB68DA6028
:100C5400012318461037BD4680BD00BF0044004044
:100C6400640400207C04002080B584B000AF786068
:100C740039607868FFF79DFF0346002B01D00023FD
:100C840020E07B685B697A68D35CDAB23B681A70EF
:100C94007B685B69013303F00F027B685A610B4B7D
:100CA400FB607B680A4A93420BD17868FFF781FFA7
:100CB4000346002B05D0FB68DB6823F08002FB6849
:100CC400DA60012318461037BD4680BD0044004059
:100CD4006404002080B582B000AF0C4B7B60FB1C29
:100CE40019460B48FFF7C0FF0346002B04D0FB78DE
:100CF4001A467B685A6005E07B68DB6823F0800253
:100D04007B68DA6000BF0837BD4680BD0044004000
:100D14006404002080B582B000AF074B7B607B6821
:100D24005B68FB70FB7819460448FFF755FF00BF6A
:100D34000837BD4680BD00BF004400407C0400204D
:100D440080B582B000AF0346FB71FB79082B17D145
:100D540000BF08211148FFF73FFF0346002BF8D0DE
:100D640000BF20210D48FFF737FF0346002BF8D0C2
:100D740000BF08210948FFF72FFF0346002BF8D0D6
:100D840000BFFB7919460548FFF726FF0346002BF1
:100D9400F7D000BF00BF0837BD4680BD6404002003
:100DA40080B582B000AF786000BF79680548FFF76E
:100DB4005BFF0346002BF8D000BF00BF0837BD46D9
:100DC40080BD00BF7C04002080B582B000AF786095
:100DD40007E07B681B781846FFF7B2FF7B68013396
:100DE4007B607B681B78002BF3D100BF00BF083702
:100DF400BD4680BD80B400AF00231846BD4680BC0C
:100E04007047000080B500AF0148FFF7DDFFFBE746
:100E14002010000880B584B000AF78607B681B6840
:100E2400FB600248FFF7D0FFFBE700BF3810000863
:100E340080B500AF0148FFF7C7FFFBE7501000087B
:100E440080B500AF0148FFF7BFFFFBE7681000085B
:100E540080B500AF1448FFF7B7FF042000F042F854
:100E64000021124800F03CF8114B1B681946114848
:100E740000F036F80021104800F032F800210F4845
:100E840000F02EF8012000F031F8022000F02EF8D6
:100E9400032000F02BF8042000F028F800F028F8D4
:100EA4000748FFF791FFFBE780100008090E0008D0
:100EB4000C000020190E0008350E0008450E00082D
:100EC40098100008054880F309884FF0030080F368
:100ED4001488BFF36F8FFFF7BBBF000000380020FA
:100EE40001DF704702DF704703DF704704DF70479C
:040EF40005DF70475F
:100EF80000000000000000000000000000000000EA
:100F080000000000000000000000000000000000D9
:100F180000000000000000000000000000000000C9
:100F280000000000000000000000000000000000B9
:100F380000000000000000000000000000000000A9
:100F48000000000000000000000000000000000099
:100F58000000000000000000000000000000000089
:100F68000000000000000000000000000000000079
:100F78000000000000000000000000000000000069
:100F88000000000000000000000000000000000059
:100F98000000000000000000000000000000000049
:100FA8000000000000000000000000000000000039
:100FB8000000000000000000000000000000000029
:100FC8000000000000000000000000000000000019
:100FD8000000000000000000000000000000000009
:100FE80000000000000000000000000000000000F9
:100FF80000000000000000000100000002000000E6
:10100800040000000800000010000000000002407A
:10101800000402400008024048656C6C6F2066724C
:101028006F6D2074687265616420310A00000000E9
:1010380048656C6C6F2066726F6D207468726561AC
:101048006420320A0000000048656C6C6F206672EC
:101058006F6D207468726561642033210A00000096
:1010680048656C6C6F2066726F6D2074687265617C
:10107800642034210A00000048656C6C6F20667299
:101088006F6D207573657220636F6465210A0000B7
:1010980048656C6C6F2066726F6D205F5F696E6962
:0510A800745F5F0A0007
:1010AD000100000001000000FFFFFFFF0100000034
:040000050800019D51
:00000001FF
