:020000040800F2
:1000000000400020B5010008A5020008A902000870
:10001000AD020008B1020008B50200085001000856
:1000200050010008500100085001000815020008A6
:100030005001000850010008F7010008F90200080B
:10004000500100085001000850010008500100084C
:10005000500100085001000850010008500100083C
:10006000500100085001000850010008500100082C
:10007000500100085001000850010008500100081C
:10008000500100085001000850010008500100080C
:1000900050010008500100085001000850010008FC
:1000A00050010008500100085001000850010008EC
:1000B00050010008500100085001000850010008DC
:1000C00050010008500100085001000850010008CC
:1000D0005001000850010008B90200085001000852
:1000E00050010008500100085001000850010008AC
:1000F000500100085001000850010008500100089C
:10010000500100085001000850010008500100088B
:10011000500100085001000850010008500100087B
:10012000500100085001000850010008500100086B
:10013000500100085001000850010008500100085B
:10014000500100085001000850010008500100084B
:0401500000BE0000ED
:1001540000B5164B1A6883B002B100BE5A6802B1EA
:1001640000BE9A6802B100BEDA6802B100BE1A6924
:1001740002B100BE5A6902B100BE9A6902B100BE62
:10018400DA6902B100BE1A6A02B100BE5B6A03B149
:1001940000BE00F0B1FA00F00FFC0DF1070000F012
:1001A40099FB9DF8070000F031FBF6E710000020F2
:1001B40019491A4A1A4B9C1A4FF00005002C07D013
:1001C40051F8256042F825600135601B0028F7DCF2
:1001D4001449154A531A002B4FF000044FF0000540
:1001E40041F825400135581B0028F9DC0F48004729
:1001F40000BEEFF309802DE9F14FEFF3088000F022
:10020400DBF880F30888BDE8F14F80F30988704774
:10021400EFF3098000F076B8950C00080000002088
:1002240010000020100000200008002055010008E4
:1002340030B403FA01FC174C174B53F82050236BCE
:100244002B43164D236355F820004B0004689A4055
:1002540022430260039C029A9A4004FA03F344681E
:100264004CEA04044460846822438260C26807291B
:1002740043EA020394BF0022012200EB8202C3601E
:1002840001F00701049B106A89008B40034330BCD2
:1002940013627047003802400C0C0008000C000880
:1002A40000BE704700BE704700BE704700BE704776
:1002B40000BE704708B50E4B1B681A0609D40C4BD8
:1002C4001B689B060BD4BDE808400321262000F0E0
:1002D40033B800F053FA064B1B689B06F3D500F0C5
:1002E40071FABDE808400321262000F025B800BFBC
:1002F40000440040024A13680133136000F054B80C
:10030400380000208269034612F8022C59680068FC
:10031400531E042B0ED8DFE803F00507090B030076
:1003240000F0DEB900F07AB900F000B900F092B93B
:1003340000F08CB8704700BF0028B4BF00F11F0361
:10034400034603294FEA631315D8C90101F160413B
:10035400424201F5614102F01F0210B400F01F0097
:1003640051F8234058BF504201228240224341F8B1
:10037400232010BC7047002252F82330FFDE00BF58
:100384004FF0E0234FF47A511A6942F002021A61E5
:100394001A6901FB00F042F004021A6158611A69FB
:1003A40042F001021A617047024A536843F08053D5
:1003B4005360704700ED00E0F0B41F4F1F4B3E68E0
:1003C4001B68741CB4FBF3F203FB1244002C30D002
:1003D4001B4B00221D684FF0010C13460CFA03F16D
:1003E400294208BF0132944203F10103F6D89E4228
:1003F4001DD0144A1449556A546A01EB061CC5F30E
:10040400C01536018CF80D5001EB0315885124F00A
:10041400800401208CF80C006E7B5462506A40EA20
:10042400C61050623B601B010222C8582A73F0BCFC
:1004340070472346DBE700BF580400205404002023
:100444000000002000ED00E03C0100202F4A304B6A
:1004540012681B68511C994249D9002A51D070B5C1
:100464002C4D2C6814F00103864646D1012003E08C
:1004740000FA03F121423CD101339A42F8D12649D2
:100484004FF0000C03E00CF1010C624506D0084665
:1004940051F8045B002DF6D0002101601F4E204965
:1004A4001B014FF0000CF55003E00CF1010C624508
:1004B40006D0084651F8044B002CF6D00022026006
:1004C40033440120C3E901451873164B2C6003EB38
:1004D400CE0153F83E204B6813496FF002066E625A
:1004E40061614FF08071C4E90621236070BD002072
:1004F4007047C9430C402C60C1E76FF00101002331
:10050400F8E7064B1A601260FFDE00BF54040020B7
:100514000400002000000020BC0000203C0100205A
:100524003C0000204C030020E009000820285DD88E
:100534002DE9F047DFF8B880DFF8B8902E4C2F4A49
:100544002F4F304E054630486B1C08F1040C09F15E
:100554000401E71B861B1360203C28380CEB850C38
:1005640001EB85014FF0000EB7FBF3F7B6FBF3F692
:10057400434601E0634509D09A460433DAF8002083
:10058400002AF7D120F00703CAF800304B4601E0F7
:10059400994209D09A460433DAF80020002AF7D1A8
:1005A40024F00703CAF8003075450EF10103A4EBEB
:1005B4000704A0EB060001D09E46D9E70024134BA4
:1005C400134D2046C3E90054FFF740FF114B124A74
:1005D4001B686FF0020159621B685A614FF0807208
:1005E400C3E906521C600120BDE8F0870020704773
:1005F400BC0000203C000020000001205404002026
:100604000080002000000120008001204C03002015
:10061400110900083C010020E009000830B40A4A2E
:100624000A4C15682368AB420BD20246581C206062
:10063400074C04EBC30544F833200120696030BC47
:100644007047002030BC704754040020080000208C
:100654004C0300201C4A1368012B34D970B51B4C81
:1006640004EB00114FEA001E0D7B5DB350B3013B58
:100674001360174A8D6800230B731168E1B1154AA2
:1006840001E0994208D094460133DCF8006004325A
:10069400002EF6D1CCF8005074440F4B646800224D
:1006A40001E0914208D09C460132DCF8005004334A
:1006B400002DF6D1CCF80040084A0123116883408C
:1006C4000B43136070BD7047040000203C01002000
:1006D40054040020BC0000203C0000200000002046
:1006E40008B53220FFF74CFE024A536843F08053AA
:1006F400536008BD00ED00E070B584B0002403250C
:100704000726234629462046CDE9014600950222C4
:10071400FFF78EFD0222114623462046CDE901460D
:100724000095FFF785FD1349134A0B6C43F400331E
:100734000B64D36823F48053D360D36843F0080375
:10074400D360D36843F00403D360D36843F0200339
:10075400D3601369882023F4405313619060D368F5
:10076400214643F400532620D36004B0BDE8704012
:10077400FFF7E2BD00380240004400400F4B196906
:100784005A69914213D05A69995C5A69013202F04C
:100794000F025A611A695B699A42C9B204D1084AC4
:1007A400D36823F08003D360054B59607047044A33
:1007B400D36823F08003D360704700BF7404002023
:1007C400004400400F4B104841681A6910B40132CC
:1007D4005C6902F00F02A24212D01A69C9B299549C
:1007E4001A69013202F00F021A611A695969531C1D
:1007F40003F00F038B4203D1C36823F02003C360CB
:1008040010BC70475C0400200044004008282F4BB3
:1008140016D01A695969013202F00F028A42F8D0DF
:100824001A692B4998541A69013202F00F021A61AD
:10083400CB681B0603D4CB6843F08003CB607047BE
:100844001A695969013202F00F028A42F8D01A6912
:10085400082199541A691E49013202F00F021A61E3
:10086400CA68120603D4CA6842F08002CA601A69D0
:100874005969013202F00F028A42F8D01A69202124
:1008840099541A691249013202F00F021A61CA68B6
:10089400120603D4CA6842F08002CA601A69596910
:1008A400013202F00F028A42F8D01A6908219954E1
:1008B4001A690749013202F00F021A61CA68120666
:1008C400A7D4CA6842F08002CA60A2E77404002078
:1008D40000440040064B19695A699142FBD05A6999
:1008E4009A5C02705A69013202F00F025A61704731
:1008F4005C04002010B50446007828B1FFF786FF99
:1009040014F8010F0028F9D110BD00BF0020704772
:1009140008B5024C2046FFF7EDFFFBE7200C00086A
:1009240010B5024C2046FFF7E5FFFBE7380C000842
:1009340008B5024C2046FFF7DDFFFBE7500C00082A
:1009440008B5024C2046FFF7D5FFFBE7680C00080A
:1009540008B5042000F040F81148124C002100F0C2
:1009640039F8114B1148196800F034F81048002187
:1009740000F030F800210F4800F02CF8012000F0BE
:100984002FF8022000F02CF8032000F029F80420AE
:1009940000F026F800F026F82046FFF7ABFFFBE74F
:1009A40015090008800C00080C0000202509000827
:1009B4003509000845090008054880F309884FF007
:1009C400030080F31488BFF36F8FFFF7C1BF0000EB
:1009D4000038002001DF704702DF704703DF7047F3
:0809E40004DF704705DF7047D6
:1009EC0000000000000000000000000000000000FB
:1009FC0000000000000000000000000000000000EB
:100A0C0000000000000000000000000000000000DA
:100A1C0000000000000000000000000000000000CA
:100BFC000000000000000240000402400008024017
:100C0C0001000000020000000400000008000000C9
:100C1C001000000048656C6C6F2066726F6D20745C
:100C2C00687265616420310A0000000048656C6CD4
:100C3C006F2066726F6D2074687265616420320A71
:100C4C000000000048656C6C6F2066726F6D20743C
:100C5C0068726561642033210A00000048656C6C81
:100C6C006F2066726F6D2074687265616420342128
:100C7C000A00000048656C6C6F2066726F6D205F17
:090C8C005F696E69745F5F0A0084
:100C9500FFFFFFFF01000000010000000100000050
:04000005080001B539
:00000001FF
